:1000000002308A00DA2A00000A108A100A118207D8
:1000100028340C340134063420102010A021452946
:10002000D220C42720102000201020100001201012
:10003000201020102010201020100001C3306D313E
:10004000E9307210201020100001C3376E3AF230F0
:10005000F332EE30201000014137F434E73A6110FA
:10006000201020100001C3376E3AF230F332EE3028
:1000700020100001C3376E3AF230F332EE30201018
:10008000000120102010201020102010201000014E
:10009000CE3A653B61102010201020100001C337BC
:1000A0006E3AF230F332EE3020100001C3376E3A70
:1000B000F230F332EE30201000012010201020101A
:1000C0002010201020100001C3376E3AF230F332B6
:1000D000EE3020100001C3306D31E930E4302010E3
:1000E00020100001C3376E3AF230F332EE302010A8
:1000F00000014937E3377239E531F430201000014F
:10010000A5312010201020102010201020002010D9
:100110002010A020C2244529D42720102000201D13
:10012000441000012010A024CE214F29D222432ABE
:100130004F1020100001201D431000002F308400BC
:10014000831300080319B2280130F800F701F70BF8
:10015000A728F80BA6284A30F700F70BAD28B028DF
:10016000800BA4280800360EF039F7000F30080580
:100170007704880000000814BD280810080008084B
:10018000F700080E0F39F8000800831608108810D1
:100190000811831288100F3083160805F038880084
:1001A00083120815000008140000BF207808B6006C
:1001B0000810000008140000BF207808B5000810DF
:1001C0000F308316080588008312360EF700F030D2
:1001D000F70577083504F8007808B500B51BCB287B
:1001E000331C881033188814000008110000081010
:1001F000340EB5000F30B5053508B600B32034080D
:100200000F39B500B600B32008000F30831608057B
:10021000880008108810081183128810081108102F
:100220000F30AF009E200130A8002808033C031CBB
:1002300021290330B600B3200530AF009E20A80A64
:1002400015290230B600B3200530AF009E20A8016A
:100250002808033C031C352928080420A900B30101
:100260002908B400C520A80A28298A110A12F42AEC
:10027000300B3B293E294030B1003F29B10101300C
:100280002F02B10731088038B200B3013208B40040
:10029000C52008002E08073A031958290B3A0319FC
:1002A0005D29063A03196529023A03196B29702959
:1002B0000130AF00B00038217529B3010130B4001E
:1002C000C5200230AF009E2075290130AF000230FA
:1002D000B00038217529B3011030B400C52075294C
:1002E0000130B3002E08B400C52008000B08A80098
:1002F0008B13831603178C170C1400000000831255
:100300000C087F390319BD290313A90003170D0831
:100310000313AA0003170F080313AB002908AE004C
:100320004A212A0803178D0003132B0803178F0097
:1003300083168C170C140000000083120C0D0E0D98
:100340007F390319BD290313A90003170D080313EF
:10035000AA0003170F080313AB002908AE004A21B7
:100360002A0803178D0003132B0803178F008D0A2B
:1003700003198F0A0313792903170313A81B8B177B
:100380000800831606108312061083168610831247
:10039000861483160611831206158316861183129E
:1003A0008615831606168312061AD9293730F800E7
:1003B000832A831686168312861AE1293430F800C0
:1003C000832A831606178312061BE9293130F800A9
:1003D000832A831686178312861BF1294330F8007F
:1003E000832A83160610831206148316861083123E
:1003F0008610831606118312061583168611831242
:100400008615831606168312061A092A3830F80054
:10041000832A831686168312861A112A3530F8002D
:10042000832A831606178312061B192A3230F80016
:10043000832A831686178312861B212A3030F80000
:10044000832A8316061083120614831686108312DD
:1004500086148316061183120611831686118312E1
:100460008615831606168312061A392A3930F800C3
:10047000832A831686168312861A412A3630F8009C
:10048000832A831606178312061B492A3330F80085
:10049000832A831686178312861B512A3D30F80063
:1004A000832A83160610831206148316861083127D
:1004B000861483160611831206158316861183127D
:1004C0008611831606168312061A692A2F30F80041
:1004D000832A831686168312861A712A2A30F80018
:1004E000832A831606178312061B792A2D30F800FB
:1004F000832A831686178312861B812A2B30F800E5
:10050000832A0030F80008000B08AA008B1383161A
:1005100003178C170C14000000000318B62A83126E
:100520000C087F390313AB0003170D080313AC004D
:1005300003170F080313AD002B08AE004A212C0847
:1005400003178D0003132D0803178F0083168C17D4
:100550000C140000000083120313A90BB02AB32A65
:1005600083160317B62AD52A8316031783120C0D98
:100570000E0D7F390313AB0003170D080313AC00F6
:1005800003170F080313AD002B08AE004A212C08F7
:1005900003178D0003132D0803178F008D0A03190D
:1005A0008F0A03100313A90B872AAA1B8B178A1122
:1005B0000A12A12C03081F3983003430A3003630FF
:1005C000A4003830A500A70183161F149F141F151F
:1005D0009F1107309C008313FF3086000030870096
:1005E0000830880083120529831681130130831295
:1005F000AF00B00038210C3003178D0000308F00A1
:10060000031376210130AF000230B00038211430DE
:1006100003178D0000308F00031376218714071312
:10062000A7012708023C031CA52CA7012708023CB0
:10063000031CA32CC1217808A600A6080319A22C2C
:100640000230A8009630AF009E20A80B222B26086F
:10065000433C031D3D2B2030A000A100A20001302F
:10066000AF000230B0003821173003178D00003082
:100670008F0003137621A701A32C26083D3C031D00
:10068000822C2030A000A100A2000130AF00B000F9
:1006900038211E3003178D0000308F0003137621A0
:1006A0000130AF000230B0003821253003178D0033
:1006B00000308F00031376210430A800FA30AF0019
:1006C0009E20A80B5E2B0130AF00B00038212C30EB
:1006D00003178D0000308F00031376210130AF0027
:1006E0000230B0003821333003178D0000308F0006
:1006F000031376210430A800FA30AF009E20A80B27
:100700007C2B0130AF00B00038213A3003178D0048
:1007100000308F00031376210130AF000230B000AB
:100720003821413003178D0000308F0003137621EC
:10073000A7012708023C031C822CC1217808A600CF
:10074000A6080319812C0230A8009630AF009E2025
:10075000A80BA52B203027078400831326088000D0
:1007600001302707A800AF000230B0003821203048
:100770002707840083130008A800AE004A2123083D
:100780002002031D5C2C24082102031D5C2C25087B
:100790002202031D5C2C2030A000A100A200013029
:1007A000AF00B0003821483003178D0000308F00B3
:1007B000031376210130AF000230B00038214F30F2
:1007C00003178D0000308F00031376210430A8003A
:1007D000FA30AF009E20A80BE82B0130AF00B0002C
:1007E0003821563003178D0000308F000313762117
:1007F0000130AF000230B00038215D3003178D00AA
:1008000000308F0003137621A7012708023C031C48
:100810005A2CC1217808A600A60803192C2C0230F6
:10082000A8009630AF009E20A80B112C203027077F
:10083000840083132608800001302707A800AF003A
:100840000230B000382120302707840083130008CD
:10085000A800AE004A21A70A2708033C031D592C13
:100860002008A3002108A4002208A5002030A00031
:10087000A100A200A6000130AF00B0003821643012
:1008800003178D0000308F00031376210130AF0075
:100890000230B00038216B3003178D0000308F001C
:1008A000031376210430A800FA30AF009E20A80B75
:1008B000542C052CA701822CA70A2708033C031DF2
:1008C000812C0130AF00B0003821723003178D0049
:1008D00000308F00031376210130AF000230B000EA
:1008E0003821793003178D0000308F0003137621F3
:1008F0000430A800FA30AF009E20A80B7A2CA70184
:10090000822C992B2030270784008313260880002F
:1009100001302707A800AF000230B0003821203096
:100920002707840083130008A800AE004A21813005
:1009300003178D0000308F0003100B300313A90044
:10094000842AA70A162BA70A112B23082002031DAD
:10095000D52C24082102031DD52C25082202031DB5
:10096000D52C87100130AF00B00038218730031735
:100970008D0000308F00031376210130AF0002306C
:10098000B00038218F3003178D0000308F00031323
:100990007621871707170830A800FA30AF009E208D
:1009A000A80BCD2C87130713F32C0130AF00B00038
:1009B0003821923003178D0000308F000313762109
:1009C0000130AF000230B00038219B3003178D009A
:1009D00000308F00031376210430A800FA30AF00F6
:0C09E0009E20A80BEE2C8316F62A630064
:02400E00713F00
:00000001FF
;PIC16F877A
;CRC=84C1  CREATED="29-oct.-23 10:05"
